S00F00007365676D656E742E7372656322
S11300000C9434000C9451000C9451000C94510045
S11300100C9451000C9451000C9451000C94510018
S11300200C9451000C9451000C9451000C94510008
S11300300C9451000C948A000C9451000C945100BF
S11300400C94A9000C9451000C9451000C94510090
S11300500C9451000C9451000C9451000C945100D8
S11300600C9451000C94510011241FBECFEFD8E022
S1130070DEBFCDBF11E0A0E0B1E0E0E0F3E002C0FC
S113008005900D92A831B107D9F721E0A8E1B1E0BC
S113009001C01D92AB31B207E1F70E946C000C94D1
S11300A07E010C940000FC01408121E030E002C09C
S11300B0220F331F6A95E2F7242B20830895FC0155
S11300C0908121E030E002C0220F331F6A95E2F7ED
S11300D020952923208308950E94F3000E9456014D
S11300E0E1E8F0E080818B7F80838081836080837E
S11300F085B58A7F85BD85B5826085BDEFE6F0E074
S1130100808181608083EEE6F0E08081816080837D
S11301107894FFCF1F920F920FB60F9211248F93F2
S11301209F938091190190911A0101968B33910547
S113013029F090931A018093190104C010921A01B6
S1130140109219019F918F910F900FBE0F901F90E5
S113015018951F920F920FB60F9211242F933F936D
S11301604F935F936F937F938F939F93AF93BF93BB
S1130170EF93FF9340911801242F30E0F901EE0F23
S1130180FF1FE05FFE4F8091190190911A01608179
S113019071810E946A01220F331FF901E25FFE4F51
S11301A0608171810E946A01862F642F0E9403017D
S11301B0809118018F5F843019F08093180102C078
S11301C010921801FF91EF91BF91AF919F918F9180
S11301D07F916F915F914F913F912F910F900FBE3F
S11301E00F901F90189564E08AE290E00E945300FB
S11301F067E08AE290E00E94530060E084E290E0CD
S11302000E9453000895CF93DF93E82FF0E0EC5F52
S1130210FE4FD081E62FF0E0E050FF4FC08164E054
S11302208BE290E00E945F0067E08BE290E00E9426
S11302305F0060E085E290E00E945F0085E08A95BF
S1130240F1F7000098E0D0FD03C085B18E7F02C0B5
S113025085B1816085B9D69585E08A95F1F700006E
S11302605F9A85E08A95F1F700005F98915059F7FD
S113027098E0C0FD03C085B18E7F02C085B1816066
S113028085B9C69585E08A95F1F700005F9A85E007
S11302908A95F1F700005F98915059F75C9A85E0D0
S11302A08A95F1F70000DF91CF9108950F931F9382
S11302B0CF93DF93C0E0D1E004E011E069918FEFC8
S11302C00E940301C017D107C9F7DF91CF911F9195
S11302D00F910895AA1BBB1B51E107C0AA1FBB1FA6
S11302E0A617B70710F0A61BB70B881F991F5A95BE
S11302F0A9F780959095BC01CD010895F894FFCF9E
S113030010204080039F250D9949411F01190100C8
S10B03100A006400E803102751
S9030000FC
