S00C0000756172742E737265635C
S11300000C9434000C9451000C9451000C94510045
S11300100C9451000C9451000C9451000C94510018
S11300200C9451000C9451000C9451000C94510008
S11300300C9451000C94AB010C9451000C9451009D
S11300400C9451000C9451000C9484020C94B20250
S11300500C9451000C94C0010C9451000C94510068
S11300600C9451000C94510011241FBECFEFD8E022
S1130070DEBFCDBF11E0A0E0B1E0E0EAF6E002C0EF
S113008005900D92A834B107D9F721E0A8E4B1E0B6
S113009001C01D92AD38B207E1F70E9448010C94EB
S11300A04E030C94000085B1826085B985E08A9581
S11300B0F1F7000085B18D7F85B90895CF93C82FDE
S11300C0662321F085B1816085B903C085B18E7F37
S11300D085B98AB180618AB98AB180628AB98AB1E4
S11300E080648AB98AB180688AB98BB18F778BB9F9
S11300F08BB18F7B8BB98BB18F7D8BB98BB18F7E9D
S11301008BB9CC231CF48BB180688BB9C6FF03C0B8
S11301108BB180648BB9C5FF03C08BB180628BB98E
S1130120C4FF03C08BB180618BB90E9453008BB1B3
S11301308F778BB98BB18F7B8BB98BB18F7D8BB95B
S11301408BB18F7E8BB9C3FF03C08BB180688BB931
S1130150C2FF03C08BB180648BB9C1FF03C08BB1F4
S113016080628BB9C0FF03C08BB180618BB90E94E0
S113017053008BB180618BB98BB180628BB98BB129
S113018080648BB98BB180688BB987EB9BE0019756
S1130190F1F700C00000CF91089560E00E945E0076
S11301A00895611104C080580E94CD0008958054C0
S11301B00E94CD00089581E00E94CD00089561E081
S11301C00E945E000895CF93DF93FC0103C00E9458
S11301D0DF00FE01EF01219680818111F8CFDF91CC
S11301E0CF910895CF93C82F84B1816084B98AB127
S11301F080628AB984B1826084B98AB180618AB923
S11302008AB180628AB98AB180648AB98AB1806805
S11302108AB98FEF99EF0197F1F700C000008BB115
S113022080628BB98BB180618BB90E9453008FE1DE
S11302309EE40197F1F700C000000E9453008FEF85
S113024090E00197F1F700C000000E9453008FEF87
S113025090E00197F1F700C000008BB18F7E8BB95D
S11302600E9453008FEF90E00197F1F700C0000067
S113027088E20E94CD0088E00E94CD000E94DB004D
S113028086E00E94CD008C2F0E94CD00CF9108956E
S11302908CE00E94F20060E081E00E94D10080E0E6
S11302A091E00E94E30061E083E00E94D10087E0D6
S11302B091E00E94E30060E088E00E94D1008CE0BD
S11302C091E00E94E30060E08DE00E94D1008EE0A6
S11302D091E00E94E30061E088E00E94D10080E1A7
S11302E091E00E94E300ECE7F0E080818064808389
S11302F080818F7780838081877F808380818B7FDB
S1130300808380818D7F808380818D7F8083EAE7F5
S1130310F0E0808180688083808188608083808130
S11303208160808380818260808380818460808317
S1130330E1E8F0E080818B7F80838081836080832B
S1130340EFE6F0E080818160808387E690E00E94A0
S1130350DC027894FFCF1F920F920FB60F921124F4
S11303608F93EF93FF93EAE7F0E0808180648083CA
S1130370FF91EF918F910F900FBE0F901F901895E2
S11303801F920F920FB60F9211240F931F932F9366
S11303903F934F935F936F937F938F939F93AF9309
S11303A0BF93EF93FF93CF93DF9300D000D0CDB7EB
S11303B0DEB780E390E39A8389839C838B830091E7
S11303C07800109179004AE0BE016F5F7F4FC80149
S11303D00E94190360E088E00E94D10083E291E06A
S11303E00E94E30060E088E00E94D100CE01019603
S11303F00E94E30082E191E00E940C03CE01019689
S11304000E940C038EE191E00E940C0340E1BE01C6
S11304106F5F7F4FC8010E94190360E08DE00E9466
S1130420D10084E291E00E94E30060E08DE00E944C
S1130430D100CE0101960E94E30061E088E00E94B1
S1130440D10081E291E00E94E3000B30110548F4F1
S113045061E088E00E94D10088E291E00E94E3001C
S11304603AC00037110548F461E088E00E94D100E9
S11304708EE291E00E94E3002EC00F3F110509F0C7
S113048048F461E088E00E94D10081E391E00E9499
S1130490E30021C00D3981E0180748F461E088E0E9
S11304A00E94D10086E391E00E94E30014C0053964
S11304B0124048F461E088E00E94D1008BE391E0AF
S11304C00E94E30008C061E088E00E94D10082E459
S11304D091E00E94E3000F900F900F900F90DF9136
S11304E0CF91FF91EF91BF91AF919F918F917F91A8
S11304F06F915F914F913F912F911F910F910F90A9
S11305000FBE0F901F9018951F920F920FB60F9267
S113051011242F938F939F93EF93FF938091C000A7
S11305202091C6008C71E0914A01EF5FEF719091C8
S11305304901E91739F0E0934A01F0E0E35BFE4F2B
S1130540208301C082E090914801892B8093480167
S1130550FF91EF919F918F912F910F900FBE0F906C
S11305601F9018951F920F920FB60F9211248F931C
S11305709F93EF93FF9390914C0180914B019817B7
S113058069F0E0914B01EF5FEF71E0934B01F0E014
S1130590E359FE4F80818093C60005C0E1ECF0E092
S11305A080818F7D8083FF91EF919F918F910F9038
S11305B00FBE0F901F90189510924C0110924B0192
S11305C010924A0110924901282F392F33231CF429
S11305D022E02093C00090789093C5008093C400DB
S11305E088E98093C10086E08093C2000895209139
S11305F04C012F5F2F7190914B012917E1F3E22FEA
S1130600F0E0E359FE4F808320934C01E1ECF0E0ED
S11306108081806280830895CF93DF93EC0103C0CF
S113062021960E94F70288818111FACFDF91CF9140
S11306300895BB274A3031F4992322F4BDE2909502
S113064081959F4F0C942503BB27FB015527AA27AF
S1130650880F991FAA1FA41710F0A41B839550514B
S1130660B9F7A05DAA3308F0A95DA193009779F7C3
S1130670B111B1931192CB010C943E03DC01FC0146
S1130680672F71917723E1F7329704C07C916D93C2
S113069070836291AE17BF07C8F30895F894FFCF33
S11306A076616C75653A006B65793A0061006200A9
S11306B063004144432076616C75653A20000D0A5D
S11306C000202020202020005269676874005570A3
S11306D000446F776E004C6566740053656C656307
S10B06E074004E6F6E6500000A
S9030000FC
