S00B00006C63642E73726563E6
S11300000C9434000C9451000C9451000C94510045
S11300100C9451000C9451000C9451000C94510018
S11300200C9451000C949A010C9451000C945100BE
S11300300C9451000C9451000C9451000C945100F8
S11300400C9451000C9451000C9451000C945100E8
S11300500C9451000C9451000C9451000C945100D8
S11300600C9451000C94510011241FBECFEFD8E022
S1130070DEBFCDBF11E0A0E0B1E0E4E5F4E002C0F2
S113008005900D92AE31B107D9F721E0AEE1B1E0B0
S113009001C01D92A432B207E1F70E944C010C94F6
S11300A028020C94000085B1826085B985E08A95A8
S11300B0F1F7000085B18D7F85B90895CF93C82FDE
S11300C0662321F085B1816085B903C085B18E7F37
S11300D085B98AB180618AB98AB180628AB98AB1E4
S11300E080648AB98AB180688AB98BB18F778BB9F9
S11300F08BB18F7B8BB98BB18F7D8BB98BB18F7E9D
S11301008BB9CC231CF48BB180688BB9C6FF03C0B8
S11301108BB180648BB9C5FF03C08BB180628BB98E
S1130120C4FF03C08BB180618BB90E9453008BB1B3
S11301308F778BB98BB18F7B8BB98BB18F7D8BB95B
S11301408BB18F7E8BB9C3FF03C08BB180688BB931
S1130150C2FF03C08BB180648BB9C1FF03C08BB1F4
S113016080628BB9C0FF03C08BB180618BB90E94E0
S113017053008BB180618BB98BB180628BB98BB129
S113018080648BB98BB180688BB987EB9BE0019756
S1130190F1F700C00000CF91089560E00E945E0076
S11301A0089561E00E945E000895611104C08058C2
S11301B00E94CD00089580540E94CD00089581E0EE
S11301C00E94CD00089561E00E945E000895CF93DF
S11301D0DF93FC0103C00E94E300FE01EF012196BE
S11301E080818111F8CFDF91CF910895CF93C82FEB
S11301F084B1816084B98AB180628AB984B1826031
S113020084B98AB180618AB98AB180628AB98AB1B3
S113021080648AB98AB180688AB98FEF99EF0197AF
S1130220F1F700C000008BB180628BB98BB18061A3
S11302308BB90E9453008FE19EE40197F1F700C04F
S113024000000E9453008FEF90E00197F1F700C087
S113025000000E9453008FEF90E00197F1F700C077
S113026000008BB18F7E8BB90E9453008FEF90E01A
S11302700197F1F700C0000088E20E94CD0088E0F9
S11302800E94CD000E94DF0086E00E94CD008C2FEA
S11302900E94CD00CF9108958CE00E94F60080E486
S11302A00E94CD00C0E008C0EC2FF0E0E050FF4F0A
S11302B080810E94D100CF5FC830B0F380E80E94F3
S11302C0CD0080E00E94E30061E08DE00E94D50053
S11302D081E00E94E30060E081E00E94D50080E1BB
S11302E091E00E94E70060E08BE00E94D50088E185
S11302F091E00E94E70061E081E00E94D5008AE17C
S113030091E00E94E70061E08BE00E94D5008CE15F
S113031091E00E94E70085B58D7F85BDE1EBF0E0BB
S1130320808185608083E0E7F0E080818160808364
S11303307894FFCF1F920F920FB60F9211242F9330
S11303403F934F935F936F937F938F939F93AF9359
S1130350BF93EF93FF93809123018F5F80932301D9
S1130360863008F464C010922301809122018F5FCB
S1130370809322018A3038F0809121018F5F80932D
S1130380210110922201809121018A3038F01092CB
S11303902101809120018F5F8093200180912001B1
S11303A0863038F01092200180911F018F5F809376
S11303B01F0180911F018A3038F010921F01809133
S11303C01E018F5F80931E0180911E01863010F004
S11303D010921E0160E081E00E94D50080911E0110
S11303E0805D0E94E30060E082E00E94D50080917D
S11303F01F01805D0E94E30060E084E00E94D5005C
S113040080912001805D0E94E30060E085E00E940D
S1130410D50080912101805D0E94E30060E087E0C7
S11304200E94D50080912201805D0E94E300FF912B
S1130430EF91BF91AF919F918F917F916F915F9158
S11304404F913F912F910F900FBE0F901F901895D1
S1070450F894FFCF4A
S1130454070E1C181C0E070304041F1B1B0A0E00A2
S111046430303A30302E300061006200630008
S9030000FC
