S010000030312D746F6F6C732E7372656355
S11300000C9434000C943E000C943E000C943E007E
S11300100C943E000C943E000C943E000C943E0064
S11300200C943E000C943E000C943E000C943E0054
S11300300C943E000C943E000C943E000C943E0044
S11300400C943E000C943E000C943E000C943E0034
S11300500C943E000C943E000C943E000C943E0024
S11300600C943E000C943E0011241FBECFEFD8E048
S1130070DEBFCDBF0E9440000C944D000C940000E4
S1130080259A2D9890E2EFE3FCE93197F1F700C04F
S1110090000085B1892785B9F6CFF894FFCF1B
S9030000FC
