:100000000C9434000C943E000C943E000C943E0082
:100010000C943E000C943E000C943E000C943E0068
:100020000C943E000C943E000C943E000C943E0058
:100030000C943E000C943E000C943E000C943E0048
:100040000C943E000C943E000C943E000C943E0038
:100050000C943E000C943E000C943E000C943E0028
:100060000C943E000C943E0011241FBECFEFD8E04C
:10007000DEBFCDBF0E9440000C94D4000C94000061
:10008000259A2D9880E22FEF35EA9EE021503040EE
:100090009040E1F700C00000259A2FEF31EE94E088
:1000A000215030409040E1F700C0000095B1982702
:1000B00095B9259A95B1982795B9259A2FEF35EAE4
:1000C0009EE0215030409040E1F700C0000095B123
:1000D000982795B92FEF31EE94E0215030409040B1
:1000E000E1F700C00000259A2FEF35EA9EE021508D
:1000F00030409040E1F700C0000095B1982795B9D5
:100100002FEF31EE94E0215030409040E1F700C0F5
:100110000000259A95B1982795B9259A95B1982709
:1001200095B92FEF35EA9EE0215030409040E1F73D
:1001300000C00000259A2FEF31EE94E021503040AE
:100140009040E1F700C0000095B1982795B92FEFD6
:1001500035EA9EE0215030409040E1F700C00000B9
:10016000259A2FEF31EE94E0215030409040E1F796
:1001700000C0000095B1982795B92FEF35EA9EE0B1
:10018000215030409040E1F700C00000259A2FEF49
:1001900031EE94E0215030409040E1F700C0000083
:0C01A00095B1982795B96FCFF894FFCF68
:00000001FF
