S013000030352D7365676D656E74732E7372656319
S11300000C9434000C9449000C9449000C9449005D
S11300100C9449000C9449000C9449000C94490038
S11300200C9449000C9449000C9449000C94490028
S11300300C9449000C9485000C9449000C944900DC
S11300400C9449000C9449000C9449000C94490008
S11300500C9449000C9449000C9449000C944900F8
S11300600C9449000C94490011241FBECFEFD8E032
S1130070DEBFCDBF11E0A0E0B1E0E6E7F2E002C0F0
S113008005900D92A031B107D9F70E9470000C942D
S113009039010C940000FC01408121E030E002C0F1
S11300A0220F331F6A95E2F7242B20830895FC0165
S11300B0908121E030E002C0220F331F6A95E2F7FD
S11300C02095292320830895FC01408121E030E01C
S11300D002C0220F331F6A95E2F7242B2083089570
S11300E00E94B60060E083E00E94C600E1E8F0E010
S11300F080818B7F8083808183608083EFE6F0E062
S11301008081816080837894FFCF1F920F920FB615
S11301100F9211242F933F934F935F936F937F9389
S11301208F939F93AF93BF93EF93FF9380910001BD
S1130130815019F08093000103C089E0809300018D
S113014060E0809100010E94C600FF91EF91BF9191
S1130150AF919F918F917F916F915F914F913F915B
S11301602F910F900FBE0F901F90189564E08AE2B4
S113017090E00E944B0067E08AE290E00E944B000E
S113018060E084E290E00E944B0008951F93CF93B7
S1130190DF93E82FF0E0EB5FFE4F1081E62FF0E0F5
S11301A0EF5FFE4FD08164E08BE290E00E94570045
S11301B067E08BE290E00E94570060E085E290E007
S11301C00E94570085E08A95F1F70000C8E010FD11
S11301D006C060E085E290E00E94570005C060E040
S11301E085E290E00E94640085E08A95F1F70000C2
S11301F067E08BE290E00E94640085E08A95F1F765
S1130200000067E08BE290E00E9457001695C15011
S1130210F1F6C8E0D0FD06C060E085E290E00E94FF
S1130220570005C060E085E290E00E94640085E02C
S11302308A95F1F7000067E08BE290E00E94640089
S113024085E08A95F1F7000067E08BE290E00E9478
S11302505700D695C150F1F664E08BE290E00E941D
S1130260640085E08A95F1F70000DF91CF911F913A
S10902700895F894FFCF8D
S11302760910204080039F250D9949411F0109005B
S9030000FC
