S00C00006C6564732E7372656370
S11300000C9434000C943E000C943E000C943E007E
S11300100C943E000C943E000C943E000C943E0064
S11300200C943E000C943E000C943E000C943E0054
S11300300C943E000C943E000C943E000C943E0044
S11300400C943E000C943E000C943E000C943E0034
S11300500C943E000C943E000C943E000C943E0024
S11300600C943E000C943E0011241FBECFEFD8E048
S1130070DEBFCDBF0E9440000C9468000C940000C9
S1130080259A2D98389A98B181E0892788B920E279
S113009091E085B1822785B93FEF49E688E1315087
S11300A040408040E1F700C0000085B1822785B957
S11300B088B1892788B93FEF49E688E1315040404B
S11300C08040E1F700C0000088B1892788B9E1CFFA
S10700D0F894FFCFCE
S9030000FC
