S0120000696E74657272757074732E73726563B2
S11300000C9434000C9446000C9446000C94460066
S11300100C9446000C9446000C9446000C94460044
S11300200C9446000C9446000C9446000C94460034
S11300300C9446000C94A4000C9446000C944600C6
S11300400C9446000C9446000C9446000C94460014
S11300500C9446000C9446000C9446000C94460004
S11300600C9446000C94460011241FBECFEFD8E038
S1130070DEBFCDBF21E0A0E0B1E001C01D92A230FF
S1130080B207E1F70E946D000C948C010C940000FF
S1130090FC01408121E030E002C0220F331F6A9549
S11300A0E2F7242B20830895FC01908121E030E0C5
S11300B002C0220F331F6A95E2F72095292320837B
S11300C00895FC01408121E030E002C0220F331F7B
S11300D06A95E2F7242B2083089565E084E290E09A
S11300E00E94480064E084E290E00E94480063E0DB
S11300F084E290E00E94480062E084E290E00E9482
S1130100480065E085E290E00E94540064E085E2E6
S113011090E00E94540063E085E290E00E94540065
S113012062E085E290E00E945400E1E8F0E0808122
S11301308B7F8083808183608083EFE6F0E0808121
S1130140816080837894FFCF1F920F920FB60F9235
S113015011242F933F934F935F936F937F938F93C8
S11301609F93AF93BF93EF93FF938091000190917E
S113017001018230910509F44CC02CF4009769F018
S1130180019749F1B8C08430910509F47EC00CF49C
S11301905EC0059709F497C0AEC065E085E290E0C3
S11301A00E94540064E085E290E00E94610063E0F4
S11301B085E290E00E94610062E085E290E00E94A6
S11301C061008091000190910101019690930101D9
S11301D08093000190C065E085E290E00E94610098
S11301E064E085E290E00E94540063E085E290E0E0
S11301F00E94610062E085E290E00E9461008091CB
S113020000019091010101969093010180930001F6
S113021072C065E085E290E00E94610064E085E2DE
S113022090E00E94610063E085E290E00E94540047
S113023062E085E290E00E9461008091000190916B
S113024001010196909301018093000154C065E07F
S113025085E290E00E94610064E085E290E00E9403
S1130260610063E085E290E00E94610062E085E263
S113027090E00E9454008091000190910101019648
S1130280909301018093000136C065E085E290E01F
S11302900E94610064E085E290E00E94610063E0F6
S11302A085E290E00E94540062E085E290E00E94C2
S11302B061008091000190910101019690930101E8
S11302C08093000118C065E085E290E00E9461001F
S11302D064E085E290E00E94540063E085E290E0EF
S11302E00E94610062E085E290E00E946100109249
S11302F0010110920001FF91EF91BF91AF919F9185
S11303008F917F916F915F914F913F912F910F90BA
S10F03100FBE0F901F901895F894FFCFBB
S9030000FC
