:100000000C9434000C9451000C9451000C94510049
:100010000C9451000C9451000C9451000C9451001C
:100020000C9451000C9451000C9451000C9451000C
:100030000C9451000C948D000C9451000C945100C0
:100040000C9451000C9451000C9451000C945100EC
:100050000C9451000C9451000C9451000C945100DC
:100060000C9451000C94510011241FBECFEFD8E026
:10007000DEBFCDBF11E0A0E0B1E0E4ECF2E002C0F1
:1000800005900D92AE30B107D9F721E0AEE0B1E0B6
:1000900001C01D92A231B207E1F70E9478000C94D2
:1000A00060010C940000FC01408121E030E002C0BE
:1000B000220F331F6A95E2F7242B20830895FC0159
:1000C000908121E030E002C0220F331F6A95E2F7F1
:1000D0002095292320830895FC01408121E030E010
:1000E00002C0220F331F6A95E2F7242B2083089564
:1000F0000E94D90060E080E00E94E900E1E8F0E0C1
:1001000080818B7F8083808183608083EFE6F0E055
:100110008081816080837894FFCF1F920F920FB609
:100120000F9211242F933F934F935F936F937F937D
:100130008F939F93AF93BF93EF93FF9380911001A1
:10014000909111018A30910574F460910E010E9422
:10015000E900809110019091110101969093110195
:100160008093100115C0109211011092100180911E
:100170000E0190910F018330910529F410920F0127
:1001800010920E0105C0019690930F0180930E010D
:10019000FF91EF91BF91AF919F918F917F916F915F
:1001A0005F914F913F912F910F900FBE0F901F9035
:1001B000189564E08AE290E00E94530067E08AE2CA
:1001C00090E00E94530060E084E290E00E945300BF
:1001D00008951F93CF93DF93E82FF0E0EC5FFE4F7D
:1001E0001081E62FF0E0E050FF4FD08164E08BE219
:1001F00090E00E945F0067E08BE290E00E945F0069
:1002000060E085E290E00E945F0085E08A95F1F76A
:100210000000C0E021C010FF06C060E085E290E071
:100220000E946C0005C060E085E290E00E945F00E3
:1002300085E08A95F1F7000067E08BE290E00E948C
:100240006C0085E08A95F1F7000067E08BE290E0B2
:100250000E945F001695CF5FC830E8F2C0E021C071
:10026000D0FF06C060E085E290E00E946C0005C00F
:1002700060E085E290E00E945F0085E08A95F1F7FA
:10028000000067E08BE290E00E946C0085E08A95B8
:10029000F1F7000067E08BE290E00E945F00D695E6
:1002A000CF5FC830E8F264E08BE290E00E946C001F
:1002B00085E08A95F1F70000DF91CF911F910895B5
:0402C000F894FFCFE0
:0E02C40010204080039F250D9949411F01190C
:00000001FF
